{
  "_format": "hh-sol-artifact-1",
  "contractName": "WritersPoint",
  "sourceName": "contracts/WritersPoint.sol",
  "abi": [
    {
      "inputs": [],
      "stateMutability": "nonpayable",
      "type": "constructor"
    },
    {
      "anonymous": false,
      "inputs": [
        {
          "indexed": false,
          "internalType": "uint256",
          "name": "WriteupId",
          "type": "uint256"
        },
        {
          "indexed": false,
          "internalType": "address",
          "name": "owner",
          "type": "address"
        },
        {
          "indexed": false,
          "internalType": "string",
          "name": "Title",
          "type": "string"
        },
        {
          "indexed": false,
          "internalType": "string",
          "name": "subTitle",
          "type": "string"
        },
        {
          "indexed": false,
          "internalType": "string",
          "name": "authorName",
          "type": "string"
        },
        {
          "indexed": false,
          "internalType": "string",
          "name": "Content",
          "type": "string"
        },
        {
          "indexed": false,
          "internalType": "uint256",
          "name": "Wuploaded",
          "type": "uint256"
        },
        {
          "indexed": false,
          "internalType": "string",
          "name": "coverImage",
          "type": "string"
        }
      ],
      "name": "WriteupAdded",
      "type": "event"
    },
    {
      "inputs": [],
      "name": "getAllWriteups",
      "outputs": [
        {
          "components": [
            {
              "internalType": "uint256",
              "name": "WriteupId",
              "type": "uint256"
            },
            {
              "internalType": "address",
              "name": "ownedBy",
              "type": "address"
            },
            {
              "internalType": "string",
              "name": "Title",
              "type": "string"
            },
            {
              "internalType": "string",
              "name": "subTitle",
              "type": "string"
            },
            {
              "internalType": "string",
              "name": "authorName",
              "type": "string"
            },
            {
              "internalType": "string",
              "name": "Content",
              "type": "string"
            },
            {
              "internalType": "uint256",
              "name": "timestamp",
              "type": "uint256"
            },
            {
              "internalType": "string",
              "name": "coverImage",
              "type": "string"
            }
          ],
          "internalType": "struct WritersPoint.Writeup[]",
          "name": "",
          "type": "tuple[]"
        }
      ],
      "stateMutability": "view",
      "type": "function"
    },
    {
      "inputs": [
        {
          "internalType": "uint256",
          "name": "writeupId_",
          "type": "uint256"
        },
        {
          "internalType": "string",
          "name": "writeupTitle_",
          "type": "string"
        },
        {
          "internalType": "string",
          "name": "subTitle_",
          "type": "string"
        },
        {
          "internalType": "string",
          "name": "authorName_",
          "type": "string"
        },
        {
          "internalType": "string",
          "name": "writeupContent_",
          "type": "string"
        },
        {
          "internalType": "string",
          "name": "coverImage_",
          "type": "string"
        }
      ],
      "name": "newWriteups",
      "outputs": [],
      "stateMutability": "nonpayable",
      "type": "function"
    },
    {
      "inputs": [
        {
          "internalType": "address payable",
          "name": "ownedBy_",
          "type": "address"
        }
      ],
      "name": "tipToOwner",
      "outputs": [],
      "stateMutability": "payable",
      "type": "function"
    }
  ],
  "bytecode": "0x608060405234801561001057600080fd5b50336000806101000a81548173ffffffffffffffffffffffffffffffffffffffff021916908373ffffffffffffffffffffffffffffffffffffffff160217905550610edb806100606000396000f3fe6080604052600436106100345760003560e01c806351665ce7146100395780638d2a657f14610062578063d7e3a1af1461007e575b600080fd5b34801561004557600080fd5b50610060600480360381019061005b91906107fa565b6100a9565b005b61007c600480360381019061007791906107cd565b61025f565b005b34801561008a57600080fd5b506100936102ec565b6040516100a09190610b39565b60405180910390f35b60016040518061010001604052808881526020013373ffffffffffffffffffffffffffffffffffffffff1681526020018781526020018681526020018581526020018481526020014281526020018381525090806001815401808255809150506001900390600052602060002090600802016000909190919091506000820151816000015560208201518160010160006101000a81548173ffffffffffffffffffffffffffffffffffffffff021916908373ffffffffffffffffffffffffffffffffffffffff1602179055506040820151816002019080519060200190610191929190610690565b5060608201518160030190805190602001906101ae929190610690565b5060808201518160040190805190602001906101cb929190610690565b5060a08201518160050190805190602001906101e8929190610690565b5060c0820151816006015560e082015181600701908051906020019061020f929190610690565b5050507f830775a2212efc9c3f4b05869e7413465ce4320ed9b275a159957d2dcbea33af863387878787428860405161024f989796959493929190610b7b565b60405180910390a1505050505050565b600034116102a2576040517f08c379a000000000000000000000000000000000000000000000000000000000815260040161029990610b5b565b60405180910390fd5b8073ffffffffffffffffffffffffffffffffffffffff166108fc349081150290604051600060405180830381858888f193505050501580156102e8573d6000803e3d6000fd5b5050565b60606001805480602002602001604051908101604052809291908181526020016000905b82821015610687578382906000526020600020906008020160405180610100016040529081600082015481526020016001820160009054906101000a900473ffffffffffffffffffffffffffffffffffffffff1673ffffffffffffffffffffffffffffffffffffffff1673ffffffffffffffffffffffffffffffffffffffff1681526020016002820180546103a490610d68565b80601f01602080910402602001604051908101604052809291908181526020018280546103d090610d68565b801561041d5780601f106103f25761010080835404028352916020019161041d565b820191906000526020600020905b81548152906001019060200180831161040057829003601f168201915b5050505050815260200160038201805461043690610d68565b80601f016020809104026020016040519081016040528092919081815260200182805461046290610d68565b80156104af5780601f10610484576101008083540402835291602001916104af565b820191906000526020600020905b81548152906001019060200180831161049257829003601f168201915b505050505081526020016004820180546104c890610d68565b80601f01602080910402602001604051908101604052809291908181526020018280546104f490610d68565b80156105415780601f1061051657610100808354040283529160200191610541565b820191906000526020600020905b81548152906001019060200180831161052457829003601f168201915b5050505050815260200160058201805461055a90610d68565b80601f016020809104026020016040519081016040528092919081815260200182805461058690610d68565b80156105d35780601f106105a8576101008083540402835291602001916105d3565b820191906000526020600020905b8154815290600101906020018083116105b657829003601f168201915b50505050508152602001600682015481526020016007820180546105f690610d68565b80601f016020809104026020016040519081016040528092919081815260200182805461062290610d68565b801561066f5780601f106106445761010080835404028352916020019161066f565b820191906000526020600020905b81548152906001019060200180831161065257829003601f168201915b50505050508152505081526020019060010190610310565b50505050905090565b82805461069c90610d68565b90600052602060002090601f0160209004810192826106be5760008555610705565b82601f106106d757805160ff1916838001178555610705565b82800160010185558215610705579182015b828111156107045782518255916020019190600101906106e9565b5b5090506107129190610716565b5090565b5b8082111561072f576000816000905550600101610717565b5090565b600061074661074184610c41565b610c1c565b90508281526020810184848401111561076257610761610e2e565b5b61076d848285610d26565b509392505050565b60008135905061078481610e77565b92915050565b600082601f83011261079f5761079e610e29565b5b81356107af848260208601610733565b91505092915050565b6000813590506107c781610e8e565b92915050565b6000602082840312156107e3576107e2610e38565b5b60006107f184828501610775565b91505092915050565b60008060008060008060c0878903121561081757610816610e38565b5b600061082589828a016107b8565b965050602087013567ffffffffffffffff81111561084657610845610e33565b5b61085289828a0161078a565b955050604087013567ffffffffffffffff81111561087357610872610e33565b5b61087f89828a0161078a565b945050606087013567ffffffffffffffff8111156108a05761089f610e33565b5b6108ac89828a0161078a565b935050608087013567ffffffffffffffff8111156108cd576108cc610e33565b5b6108d989828a0161078a565b92505060a087013567ffffffffffffffff8111156108fa576108f9610e33565b5b61090689828a0161078a565b9150509295509295509295565b600061091f8383610a4f565b905092915050565b61093081610cd8565b82525050565b61093f81610cd8565b82525050565b600061095082610c82565b61095a8185610ca5565b93508360208202850161096c85610c72565b8060005b858110156109a857848403895281516109898582610913565b945061099483610c98565b925060208a01995050600181019050610970565b50829750879550505050505092915050565b60006109c582610c8d565b6109cf8185610cb6565b93506109df818560208601610d35565b6109e881610e3d565b840191505092915050565b60006109fe82610c8d565b610a088185610cc7565b9350610a18818560208601610d35565b610a2181610e3d565b840191505092915050565b6000610a39601e83610cc7565b9150610a4482610e4e565b602082019050919050565b600061010083016000830151610a686000860182610b1b565b506020830151610a7b6020860182610927565b5060408301518482036040860152610a9382826109ba565b91505060608301518482036060860152610aad82826109ba565b91505060808301518482036080860152610ac782826109ba565b91505060a083015184820360a0860152610ae182826109ba565b91505060c0830151610af660c0860182610b1b565b5060e083015184820360e0860152610b0e82826109ba565b9150508091505092915050565b610b2481610d1c565b82525050565b610b3381610d1c565b82525050565b60006020820190508181036000830152610b538184610945565b905092915050565b60006020820190508181036000830152610b7481610a2c565b9050919050565b600061010082019050610b91600083018b610b2a565b610b9e602083018a610936565b8181036040830152610bb081896109f3565b90508181036060830152610bc481886109f3565b90508181036080830152610bd881876109f3565b905081810360a0830152610bec81866109f3565b9050610bfb60c0830185610b2a565b81810360e0830152610c0d81846109f3565b90509998505050505050505050565b6000610c26610c37565b9050610c328282610d9a565b919050565b6000604051905090565b600067ffffffffffffffff821115610c5c57610c5b610dfa565b5b610c6582610e3d565b9050602081019050919050565b6000819050602082019050919050565b600081519050919050565b600081519050919050565b6000602082019050919050565b600082825260208201905092915050565b600082825260208201905092915050565b600082825260208201905092915050565b6000610ce382610cfc565b9050919050565b6000610cf582610cfc565b9050919050565b600073ffffffffffffffffffffffffffffffffffffffff82169050919050565b6000819050919050565b82818337600083830152505050565b60005b83811015610d53578082015181840152602081019050610d38565b83811115610d62576000848401525b50505050565b60006002820490506001821680610d8057607f821691505b60208210811415610d9457610d93610dcb565b5b50919050565b610da382610e3d565b810181811067ffffffffffffffff82111715610dc257610dc1610dfa565b5b80604052505050565b7f4e487b7100000000000000000000000000000000000000000000000000000000600052602260045260246000fd5b7f4e487b7100000000000000000000000000000000000000000000000000000000600052604160045260246000fd5b600080fd5b600080fd5b600080fd5b600080fd5b6000601f19601f8301169050919050565b7f506c732073656e64206d6f7265207468616e20302e303031204d415449430000600082015250565b610e8081610cea565b8114610e8b57600080fd5b50565b610e9781610d1c565b8114610ea257600080fd5b5056fea2646970667358221220f5f48fca061fc8dd0a407589aebc688e99dcca6951790ae7b74faea198f2a14464736f6c63430008070033",
  "deployedBytecode": "0xA9a7DFd25fF10347b9358d04153ade9840252603",
  "linkReferences": {},
  "deployedLinkReferences": {}
}